:020000040800F2
:10000000C836002061020008454B0008FD46000884
:10001000414B000845160008C54F000800000000CD
:10002000000000000000000000000000694B000814
:100030006D16000800000000494B00086D4B0008D9
:100040007B0200087B0200087B0200087B0200089C
:100050007B0200087B0200087B0200087B0200088C
:100060007B0200087B0200087B020008491600089A
:100070007B0200087B0200087B020008551600087E
:10008000611600087B020008AD1400087B0200081E
:100090007B0200087B0200087B0200087B0200084C
:1000A0007B020008754B00087B0200087B020008F9
:1000B0007B020008814B00087B0200087B020008DD
:1000C0007B0200087B0200087B0200087B0200081C
:1000D0007B0200088D4F0008A94F00087B02000832
:1000E0007B0200087B0200087B02000800F002F897
:1000F00000F0A6F814A696E8000CB244B344DA4522
:1001000001D100F09DF8BAE80F000FA696E8300084
:10011000A5EB040504EB0607AAEB0704A7F101070A
:100120004FEA15154FEA3414A4F10104AC4201D38F
:1001300000F086F813F0010F18BFFB1A43F001031B
:1001400000F001F8DBE71847F4800000148100009C
:10015000103A24BF78C878C1FAD8520724BF30C8F3
:1001600030C144BF04680C60704700007047000055
:100170000023002400250026103A28BF78C1FBD8B0
:10018000520728BF30C148BF0B6070476E2900F08E
:100190000382702900F04783662907F0DB86652912
:1001A00007F0D886672907F0D586612907F0D4863D
:1001B00003681B0A28BF41F08001692900F0B08163
:1001C000642900F0AD81752900F0AA816F2900F043
:1001D000D582782900F01383E92900F06F82E429A1
:1001E00000F06C82F52900F06982EF2900F0D282DC
:1001F000F82900F012830368DB0928BF41F0800171
:10020000632901F01380732901F01880E32901F0BC
:100210002380F32901F02880002070471FB501F0EA
:1002200079F804000020002107F0AEF9401C60605E
:100230000020002107F092F9E0601FBD10B510BD4D
:1002400001F03AF81146FFF7E9FF05F0FDF801F07B
:1002500017F903B4FFF7F2FF03BC01F01FF9000028
:100260000948804709480047FEE7FEE7FEE7FEE74A
:10027000FEE7FEE7FEE7FEE7FEE7FEE70448054986
:10028000054A064B70470000714B0008ED0000085E
:10029000C8220020C8360020C8260020C82600201A
:1002A0007CB51D4616460C00009007D04142A14285
:1002B00002D32044401E01E04FF0FF30064B7B4448
:1002C0002A4669460190304600F07FF9002C02D0A2
:1002D000009A002111707CBD2F03000010B5203A58
:1002E000C0F00B80B1E81850A0E81850B1E81850E1
:1002F000A0E81850203ABFF4F5AF5FEA027C24BFB3
:10030000B1E81850A0E8185044BF18C918C0BDE89B
:1003100010405FEA827C24BF51F8043B40F8043B64
:1003200008BF7047D20728BF31F8023B48BF11F819
:10033000012B28BF20F8023B48BF00F8012B704773
:100340004FF000020429C0F0128010F0030C00F0FE
:100350001B80CCF1040CBCF1020F18BF00F8012B7C
:10036000A8BF20F8022BA1EB0C0100F00DB85FEA4A
:10037000C17C24BF00F8012B00F8012B48BF00F816
:10038000012B70474FF0000200B513469446964685
:10039000203922BFA0E80C50A0E80C50B1F1200198
:1003A000BFF4F7AF090728BFA0E80C5048BF0CC046
:1003B0005DF804EB890028BF40F8042B08BF7047A4
:1003C00048BF20F8022B11F0804F18BF00F8012B16
:1003D000704700004FF0013C50F8042B51F8043BEB
:1003E0009A4221D1A2EB0C03934313EACC1317D109
:1003F00050F8042B51F8043B9A4215D1A2EB0C03A0
:10040000934313EACC130BD150F8042B51F8043B5F
:100410009A4209D1A2EB0C03934313EACC13DBD02D
:100420004FF00000704700BFD01A01BAB1FA81F155
:1004300001F0180122FA01F0CB40DBB2C0B2C01AC1
:10044000C1F120012CFA01F3D11A914311EAC31131
:10045000E6D1704770477047704770B504468569AC
:100460000068C10601D5302600E02026C00707D06D
:1004700070BDD4E9012130469047206A401C2062BB
:100480006D1EF6D570BD70B5044685690078C0074D
:1004900007D170BDD4E9012120209047206A401C7B
:1004A00020626D1EF6D570BD09684A0501D540B2BF
:1004B0007047C905FCD500B2704709684A0501D5E7
:1004C000C0B27047C905FCD580B2704770B50C4604
:1004D0000546012A05D02878800600D5EA69002360
:1004E00002E0012305E05B1C934202D2E05C00289D
:1004F000F9D1A869E618C01AA861286A18442862C8
:100500002846FFF7AAFF04E0D5E9012114F8010B02
:100510009047B442F8D32846FFF7B5FF70BD0000FE
:100520002DE9F0410646002410687529314616A5CC
:1005300010D0FFF7B9FF002802DA404213A507E008
:1005400031688A0701D512A502E0490704D511A533
:10055000012401E0FFF7B1FF00210A2206F1240780
:1005600009E0B0FBF2FCB0FBF2F302FB1C00303000
:1005700078541846491C0028F3D123462A463046B1
:10058000BDE8F04100F063BA000000002D0000005B
:100590002B0000002000000011680268006A53056B
:1005A00001D508700AE0D30501D5088006E01306DE
:1005B00003D5C217C1E9000200E0086001207047BE
:1005C00001694A1C02610878704700B58FB0CDE917
:1005D00001310021059105497944CDE90310114607
:1005E000684600F02BF90FB000BD0000E5FFFFFFEB
:1005F000D1E900239A4202D2531C0B60107070475D
:100600002DE9FF5F15468A460446DFF8AC80F844C2
:100610000027D8E900103E46CDE9001010E03AF876
:1006200016106A4602A800F023FE411C07D021786C
:10063000890603D5E269391891420DD80744761C22
:100640002078800602D5E069B84205DDAE42E6DBDF
:100650003AF816000028E2D1A069C01BA06120462C
:10066000FFF7FBFED8E90010CDE90010002017E0ED
:100670003AF818106A4602A800F0FAFDB0F1FF3F00
:1006800081460BD000250DF1080B05E0D4E90121CE
:100690001BF8050090476D1C4D45F7D308F101008C
:1006A000B0428046E4DB206A384420622046FFF7EF
:1006B000EAFEBDE8FF9F00004A7900002DE9F04105
:1006C0008046D21D22F007020025D2E90002F5295A
:1006D00015A614D0011E72F1000106DA0023D0EB3A
:1006E000030063EB020211A608E0D8F800108B07A4
:1006F00001D50FA602E0490701D50EA60125114636
:10070000002408F1240704E000F05CF930323A5587
:10071000641C50EA0102F7D12B463246214640467E
:10072000BDE8F04100F093B9000000002D0000008A
:100730002B0000002000000030B4002100F1240450
:1007400008E002F00705D208303542EA4372DB08C0
:100750006554491C52EA0305F3D10468002310A232
:10076000250708D504F020040C4304D0C4690123F4
:100770000CA2641EC46130BC00F069B910B5044617
:1007800021461068FFF799FE02462046BDE810405A
:100790000023D1E7D21D22F00701D1E90023CBE7E6
:1007A0000000000030000000F0B40D46018809058B
:1007B00002D5214C7C4402E01F4C7C440E340021C5
:1007C00000F1240608E002F00F071209E75D42EA93
:1007D00003721B097754491C52EA0307F3D10278CC
:1007E0000023120704D5702D06D009B1022311345D
:1007F0002246F0BC00F02BB901231034F8E770B5A5
:1008000004460D4621461068FFF757FE024629466A
:100810002046BDE870400023C6E7D21D22F0070342
:10082000D3E90023C0E70368126843F020030360A4
:100830000823C3610023B7E7AC7700002DE9F05F20
:10084000894604464FF0000ADFF874B1FB44C0F853
:1008500020A02046E1688847002874D0252806D0CB
:10086000D4E901219047206A401C2062F1E700266C
:100870005F462046E16888472028054607DB312D82
:1008800005D2781910F8200C08B10643F1E7B0073B
:1008900001D526F00406C4F81CA00027C4F818A04F
:1008A0002A2D09D0284606F051FE38B304EB8708FC
:1008B000303DC8F8185019E059F8041B204604EBE5
:1008C00087029161E1688847012F054618D1E069E8
:1008D000002820DA26F020061DE0D8F8180000EBEA
:1008E000800005EB40003038C8F818002046E16869
:1008F0008847054606F02AFE0028EED1012F0AD0CF
:100900002E2D08D12046E16888477F1C0546022F1E
:1009100046F02006C4DBA069002803DA404246F016
:100920000106A061F00701D026F010066C2D0BD057
:10093000682D09D04C2D39D06A2D35D0742D35D085
:100940007A2D33D016E038E0E1682F4620468847FC
:10095000B842054609D16C2F26D04FF48060E1687B
:10096000064320468847054604E06C2F1AD04FF412
:10097000807006430DB3A5F14100192802D8203537
:1009800046F400664A462946204626604E46FFF752
:10099000FDFB80B101280BD0F61D26F0070000F109
:1009A000080956E74020E4E78020D8E70020D6E792
:1009B00006F104094DE7284652E7206ABDE8F09F9A
:1009C0003C77000030B5B0F10A0271F100034FEA44
:1009D000900E4EEA817EB0EB0E0061EB91014FEA82
:1009E000101E4EEA017E10EB0E0041EB11114FEA92
:1009F000102E4EEA016E10EB0E0041EB11214FEA72
:100A0000104E4EEA014E10EB0E0041EB1141401822
:100A100041F100014FEAD00040EA41704FEAD101B4
:100A20004FEA810444EA907410EB800544EB010422
:100A30006D1944EB0404521BA3414FF0000348BF5F
:100A40000A3200D530BD401C41F1000130BD2DE916
:100A5000F0470D4699469246044600F12408016885
:100A6000880604D5E06921F01001216000E0012032
:100A7000A84201DD471B00E00027A1697A1902EBBB
:100A80000900081AA0612078C00602D42046FFF7AA
:100A9000E4FC002608E0D4E901211AF8060090479A
:100AA000206A401C761C20624E45F4DB2078C0068C
:100AB0000AD52046FFF7D1FC06E0D4E90121302019
:100AC0009047206A401C2062381EA7F10107F4DC21
:100AD00007E0D4E9012118F805009047206A401C7E
:100AE0002062281EA5F10105F3DC2046FFF7CBFCB0
:100AF0002078000602D50220BDE8F0870120FBE740
:100B00002DE9FF4F0C461E464FF0FF378BB0D2E960
:100B10000001DDF860800A908A46C1F30A5505B9E4
:100B20003D46002108464FF00000BAF1000F00F4E6
:100B3000400005DA00EB80004FF4400101EA50006C
:100B40004FEA9059B9F1010F00DDB9460A9850EA11
:100B50004A000ED044F61050A5F2FF3545432F143D
:100B6000B8F1000F1ED07542291E1EDDC9F100022A
:100B70001CE0B8F1010F4FF0000001D0302103E07C
:100B8000F24305E02154401CB042FBDB304600221A
:100B9000002121540B99C1F80880C1E900200FB051
:100BA000BDE8F08FBD1B6D1CDEE74A4600DA6942E6
:100BB00006A800F0F3FB06AB93E8070003AB83E85D
:100BC000070050460A9906F0E5F88DE80700A0F501
:100BD00000501F3800900398002D0ADD42F21F01DB
:100BE0004A460844002303A90390684606F04EFBDA
:100BF00009E0A0F500504A461F38002303A90390DE
:100C0000684606F058FB8DE807000004000C03D08E
:100C10004FF0FF30410800E01046B8F1000F03D05C
:100C20000022009215461EE0751E05D4FFF7CAFE8D
:100C3000303262556D1EF9D5B3460122084302D009
:100C400000227F1C04E02078302801D100227F1E82
:100C5000002A099784D01DE0112D07DAFFF7B2FEB4
:100C6000303262556D1C50EA0102F5D1084302D0C2
:100C70000098C8B10EE00021681E05E0235C625CAC
:100C800063542254401E491C8142F7DBAB46A81B2B
:100C9000401E0990002004F80B000B98099AC0F838
:100CA0000880C0E9002B7AE711264FF0000857E7CB
:100CB0002DE9F04F88460446D21D22F0070191B07D
:100CC000D1E90001CDE90A0106F02CFC02460B989F
:100CD000C00F01D02D2007E02068810701D52B200F
:100CE00002E0202101EAC000032A099001D0072A6E
:100CF00005DB03464146204600F010FB0BE120785F
:100D0000800601D5E06900E00620B8F1650F814654
:100D100006D0B8F1660F18D0B8F1670F70D131E086
:100D20000020B9F1110F009001DB112301E009F15E
:100D300001030AAA01A90CA8FFF7E2FEDDE90C7085
:100D4000002609F10105834647E001204B4600904B
:100D50004FF000470AAA01A90CA8FFF7D1FEDDE970
:100D60000DB00C995D46002610B909F101000D186F
:100D7000B9EB050003D4C0F1FF3609F10105A5EB7D
:100D800009002BE0B9F1010F01DA4FF00109002051
:100D9000B9F1110F0090484601DD112300E0034630
:100DA0000AAA01A90CA8FFF7ABFEDDE90C704D46BD
:100DB00000268346207800070AD4AB4500DA5D465A
:100DC00001A8012D04DD411911F8011C302907D0BB
:100DD0004F4502DA17F1040F04DA012082460FE0D2
:100DE0006D1EEEE7002F02DCED1B3E4403E0781C95
:100DF000A84200DD7D1CB81B00F1010A4FF000473E
:100E00002078000703D4AA4501DB4FF0FF3A002108
:100E1000B7F1004F0DF143088DF8431024D00220A4
:100E20002B23002F01DA7F422D230A21021EA0F17D
:100E3000010000DC5FB197FBF1FC97FBF1F201FBD5
:100E40001C7C17460CF1300C08F801CDEEE7A8F138
:100E5000010003702188090501D5452100E06521C5
:100E6000A0F1010800F8011C09980FA9A1EB0807DF
:100E7000FF1D00B10120411901EBEA70A16938445E
:100E8000081A401EA0612078C00602D42046FFF751
:100E9000E4FA099828B1D4E901219047206A401C5E
:100EA00020622078C00622D52046FFF7D6FA1EE041
:100EB000002E04DBB34502DD01A8805D00E0302098
:100EC000D4E901219047206A401C2062761CAAF1D7
:100ED00001005FEA000A0AD100F01CFAC06801684C
:100EE000405CD4E901219047206A401C2062281E02
:100EF000A5F10105DCDC07E0D4E9012118F8010BBC
:100F00009047206A401C2062381EA7F10107F3DCDD
:100F10002046FFF7B8FA032011B041E62DE9F04F63
:100F200004460D46D21D22F0070089B0D0E9009793
:100F30004846394606F0F6FA0246F80F01D02D234E
:100F400007E02068810701D52B2302E0202101EA78
:100F5000C0038DF820300BB1012000E00020032AEF
:100F6000824601D0072A04DB2946204600F0D6F944
:100F70003FE12078800601D40D2500E0E569C7F344
:100F80000A560D2D49DA00214FEA175B08464FF04B
:100F90000000002F00F4400007DA00EB80004FF45F
:100FA000400100EBD07001EA60008115012901DDEC
:100FB0004FF0FF3100224FEA850CBCF1180F06D329
:100FC0001346ACF118004FF08052C24003E04FF4DA
:100FD000801323FA0CF30CF10C0CBCF1200F04D39A
:100FE000ACF1200C09FA0CF001E007FA0CF0002932
:100FF0004FF0004801DD18B90FE00ED140450CD389
:1010000019EB02095F4121B9404502D19F4329EA0A
:101010000209BBEB175F00D0761C2088000502D5C3
:101020007B48784402E07A487844193808AA30238B
:1010300002F80A30037C0AF10101002E0AF1020ACB
:1010400053546A4602DC4FF0300101E04FF03101A9
:101050004FF001088DF8001002D0A6F2FF3603E031
:1010600059EA470100D06B4E002D02DC21780907B8
:1010700004D54FF002082E218DF80110C44600213E
:101080000BE0C7F303433F01C35C491C6D1E02F82C
:101090000830052908F1010801DA002DF1DC0021F2
:1010A0000CE000EB1973491C1B786D1E082902F82F
:1010B00008304FEA091908F1010801DA002DF0DCC7
:1010C00021688B0602D516E0A8F10108E04505DD90
:1010D00002EB080313F8013C302BF5D0B8F1000FF8
:1010E00009DD02EB080313F8013C2E2B03D109079D
:1010F00001D4A8F10108002D05DD3E2102F80810F9
:101100006D1E08F10108407C002E02F8080008F16D
:10111000010804DA2D20764202F8080002E02B20B4
:1011200002F808000A214FF47A70864208F101089B
:101130000BDB96FBF0F3303302F8083096FBF0F34C
:1011400008F1010800FB136601E0642E0CDB64204B
:1011500096FBF0F3303302F8083096FBF0F308F119
:10116000010800FB136601E00A2E06DB96FBF1F096
:10117000303002F8080008F1010896FBF1F001FB9D
:101180001060303002F80800A16908F1010808EB8E
:10119000050202EB0A00081AA0612078C00602D4FA
:1011A0002046FFF75AF9216A08AE01EB0A002062D7
:1011B00004E0D4E9012116F8010B9047BAF1010AC5
:1011C000F7D22078C00602D52046FFF746F96E46D2
:1011D00009E016F8010B3E280FD0D4E90121904711
:1011E000206A401C2062B8F10108F2D22046FFF7C5
:1011F0004AF909B00320BDE8F08F206A2844206234
:1012000003E0D4E90121302090476D1EEBD3F8E7CD
:101210008A6F000002FCFFFF10B5436913B1AFF302
:10122000008001E0FFF752F9012010BD127800F1B3
:1012300024010A7000224A700122EDE711684FF084
:10124000FF32E9E710B5436913B1AFF3008001E065
:10125000FFF7D6F9012010BD128800F12401828425
:101260000022C2840122EDE711684FF0FF32E9E766
:101270002DE9F04116460C46054600F043F8036898
:1012800093F80101012807D0FF2C12D8185D80B116
:1012900001202C70BDE8F081D3F8070132462146C9
:1012A00003F20713C7182846BC46BDE8F0410023E7
:1012B00060474FF0FF30EDE7754600F0EBF8AE46C3
:1012C00005006946534620F00700854618B020B552
:1012D000FEF7D4FFBDE820404FF000064FF00007B6
:1012E0004FF000084FF0000BAC46ACE8C009ACE88A
:1012F000C009ACE8C009ACE8C00921F007018D467F
:101300007047000010B500F005F8001D10BD00BFCB
:101310007962000000487047300000202DE9F0415C
:101320001F46044603260168072A01F4006004DB17
:1013300008B116A505E016A503E008B115A500E063
:1013400015A521F010002060A069C01EA0610FB19A
:10135000401EA0612046FFF780F84FB1D4E901217B
:1013600038469047206A401C2062C01C206206E07C
:10137000206AFAE7D4E9012115F8010B9047761E9F
:10138000F8D22046FFF77FF8BDE8F0814E414E00CD
:101390006E616E00494E4600696E66002DE9F047A9
:1013A000814616468AB0354878440DC88DE80D0050
:1013B00032487844801C03AC0DC884E80D0041F627
:1013C0009B300844372190FBF1F290FBF1F5A5F139
:1013D000800501FB12041B3C02D56442012000E0A1
:1013E0000020DFF898A080460027FA44AAF1BE0A40
:1013F0000EE0E0070AD03246684607EB47010123BA
:101400000AEB810105F057FF8DE8070064107F1C8F
:10141000002CEED1194F7F44AE3F19E0E80715D0FC
:1014200007EB04100DF1180A90E80E008AE80E0090
:10143000C068F04201D1981908903246012306A9EC
:1014400003A805F038FF03AB83E807006D10641CA8
:10145000002DE3D14FF0010332466946B8F1000F89
:1014600003A802D005F012FF01E005F024FFC9E94E
:101470000001C9F808200AB0BDE8F087946C0000AC
:1014800010B50446AFF300802046BDE81040FEF7DB
:10149000E0BE0000004870471000002001491820FD
:1014A000ABBEFEE7260002007047000080B541F6A3
:1014B0002400C2F2000000F08BFA41F65400C2F2A0
:1014C0000000BDE8804000F083BA0000B0B50446DB
:1014D00000688168C90709D0816821F00101816035
:1014E00001F028F821688968C90701D10020B0BD42
:1014F000054602E08068C007F8D001F01BF8411BE8
:1015000020680329F6D38168C907F3D0A06A40F0A8
:101510001000A062E06A40F00100E0620120B0BD6E
:101520000146406A826A12F0500F03D0006A026BD3
:10153000084610470168826A42F400728262896834
:1015400001F46021B1F5602F01D1017B11B100F0F0
:10155000DBB900BF816A21F480718162816AC904AC
:1015600048BF00F0D1B9816A41F00101816200F009
:10157000CBB90000406A816A41F040018162C16AD2
:1015800041F00401C16200F01DBA0000406A00F0A1
:10159000EBB90000B0B582B004460020019021688C
:1015A0008A68D2074BD1886840F00100886040F219
:1015B0000800C2F2000000684DF68361C4F21B31DE
:1015C000A0FB0101880C01900198A0B1019801389D
:1015D0000190019878B1019801380190019850B1BB
:1015E000019801380190019828B1019801380190C3
:1015F00001980028EAD100F09DFF21688968C90799
:101600001CD1054603E000BF8068C00716D100F07A
:1016100091FF411B20680329F6D38168C907F3D1E4
:10162000A06A40F01000A062E06A40F00100E062B1
:10163000002084F82400012002B0B0BD002002B0D8
:10164000B0BD0000FEE7000041F68400C2F20000D9
:1016500000F0E2BC41F6C800C2F2000000F0DCBCC1
:1016600041F60C10C2F2000000F0D6BC704700003A
:10167000EFF3108072B600BFFEE7000070B582B0D5
:1016800004460020019094F82400012804D102258A
:10169000284602B070BD00BF012084F82400204617
:1016A000FFF714FF2046FFF775FF0546002867D1B6
:1016B000A06A41F2021188430230A06240F20800A1
:1016C000C2F200000668022001F024F8B6FBF0F038
:1016D000400001900198A0B1019801380190019853
:1016E00078B1019801380190019850B10198013802
:1016F0000190019828B101980138019001980028C3
:10170000EAD12068816841F00801816000F012FF91
:1017100021688A6812070DD4886840F00400886048
:1017200000F008FF21688968490713D401206FF091
:10173000030121E0064602E088680007ECD500F0CE
:10174000F9FE801B21680B28F6D388680007F3D5C3
:101750000EE000BF064602E080684007E6D500F0D4
:10176000E9FE811B20680B29F6D381684907F3D570
:10177000012510206FF01201A26A11400843A062F7
:10178000002084F82400284602B070BD7047000095
:1017900010B581B00022009290F82420012A03D1D4
:1017A0000221084601B010BD4B680122062B80F8CB
:1017B000242033D8D0F800C003EB83035A1F1F2323
:1017C000DCF834E003FA02F40B682EEA040403FAAE
:1017D00002F22243CCF83420092B03EB430249D90F
:1017E000DCF80CE01E3A0724896894402EEA0404D1
:1017F000914023F001022143102ACCF80C1043D170
:1018000042F20841C4F20101A1F10802944543D01B
:10181000816A41F020018162012136E0D0F800C0E8
:101820000C2B03EB830213D8233A1F23DCF830E0A0
:1018300003FA02F40B682EEA040403FA02F22243CC
:10184000CCF83020092B03EB4302C9D812E000BFCB
:10185000413A1F23DCF82CE003FA02F40B682EEA6D
:10186000040403FA02F22243CCF82C20092B03EBE8
:101870004302B5D8DCF81030072489689440A343AC
:1018800091401943CCF810100021002280F8242048
:10189000084601B010BD00BF0A681202F4D40A68FD
:1018A000102B42F400020A60EED140F20801C2F2AD
:1018B000000109684DF68362C4F21B32A1FB0212DB
:1018C000910C01EB81014900009100990029DBD0C6
:1018D00000990139009100990029D5D0009901396A
:1018E000009100990029CFD0009901390091009909
:1018F0000029C9D0009901390091009900294FF0C1
:101900000001E5D1C1E7000080B541F62401C2F233
:101910000001884212D041F65401C2F2000188420F
:1019200018BF80BD41F65400C2F2000000F04CF830
:1019300040F27001C2F20001486380BD40F2B40081
:10194000C2F2000000F5FA6141F25400C2F2000058
:101950004FF4FA62FEF7C2FC40F27000C2F20000DF
:101960000121016380BD000080B541F62401C2F26F
:101970000001884212D041F65401C2F200018842AF
:1019800018BF80BD41F65400C2F2000000F01CF800
:1019900040F27001C2F20001486380BD41F2540080
:1019A00040F2B401C2F20000C2F200014FF4FA6248
:1019B000FEF794FC40F27000C2F2000001210163C6
:1019C00080BD0000704700000068C06C70470000D8
:1019D00070B50446006805684668B10627D515F05D
:1019E000020124D0A16AC90603D4A16A41F400719E
:1019F000A162816801F46021B1F5602F10D1217BD3
:101A000071B9416821F020014160A06A20F4807022
:101A1000A062A06AC00403D4A06A40F00100A062E2
:101A20002046FFF771FF20686FF012010160310658
:101A300033D515F0040130D0A16AC90603D4A16AD8
:101A400041F40051A162816801F4E041B1F5E04F39
:101A500010D1416821F080014160A06A20F48050DB
:101A6000A062A06AC00511D4A06A40F00100A06283
:101A70000CE000BF4168490508D4816801F4602189
:101A8000B1F5602F02D1217B0029E2D02046FFF77B
:101A90007DFE20686FF00C01016070060ED515F018
:101AA000010008BF70BDA06A40F48030A0622046EB
:101AB00000F0B6F820686FF00101016070BD000011
:101AC000002804BF01207047B0B50446806A28B1E1
:101AD00021688868C0070CD115E000BF0020E062D3
:101AE00084F82400204600F09DF821688868C0072B
:101AF00009D0886820F00100886000F01BFD216893
:101B00008A68D20726D1A06AC0063AD4A06A41F2F8
:101B1000021290430230A062E069D4E9013240EA47
:101B2000030C531EB3FA83F35D091346B2F5807FAD
:101B300018BF2B02207D257B01284CEA450030D1BF
:101B400035B3A56A45F02005A562E56A45F00105B3
:101B5000E56226E0054602E08868C007D3D000F0C1
:101B6000E9FC401B21680328F6D38868C007F3D03E
:101B7000A06A40F01000A062E06A40F00100E0625C
:101B8000A06AA06A40F01000A0620120B0BD00BFB2
:101B9000D4F818C04EF60005CFF6FF7505EB4C35AE
:101BA0002B434D68B2F5807F25F4694543EA050370
:101BB0004B608B684FF2FD75CFF6E17503EA0503C4
:101BC00043EA00038B6001D0012A07D12269002378
:101BD000CFF6F07303EB025201E000BF0022CB6AA4
:101BE00023F470031A43CA62896840F6FE62CFF696
:101BF0001F721140814207D10020E062A16A0122D8
:101C000062F30101A162B0BDA06A40F0100020F0B3
:101C10000200A062E06A40F00100E0620120B0BD75
:101C200070470000B0B586B00446006842F6000177
:101C3000C4F2010188424FF00001CDE90411CDE961
:101C4000021147D042F20041C4F2010188426AD138
:101C500041F21800C4F20200016841F40071016011
:101C6000016801F4007101910199016841F00401DA
:101C70000160006802A900F00400019001980120B1
:101C800002900320039040F60000C4F2010000F02F
:101C90003BFB41F684050820C2F20005C4F20200B5
:101CA0000021C5E9000105F1080080224FF480738E
:101CB0004FF4806C4FF0200E80E80E502846E9610A
:101CC00000F07AFA002818BFFFF7D2FC25626C6298
:101CD00021E000BF41F21800C4F20200016841F4A3
:101CE00080610160016801F48061019101990168DE
:101CF00041F004010160006802A900F004000190B5
:101D00000198022002900320039040F60000C4F2E4
:101D1000010000F0F9FA12200021002200F0BEFCC0
:101D2000122000F0A9FC06B0B0BD000070B5154649
:101D30000446006842F60002C4F2010290420E46D8
:101D400005D042F20041C4F2010188420AD142F2B8
:101D50000440C4F20100006810F4702F02D001208A
:101D600070BD00BF94F82400012804BF022070BD9C
:101D7000012084F824002046FFF70CFC20B100204D
:101D800084F82400012070BD42F204402168A26A58
:101D9000C4F2010040F601739A4300F57F7302F527
:101DA00080729942A26243D0A06A20F48010A0629F
:101DB0004868400504D5A06A012262F30D30A06294
:101DC000A26A0020D2044FF0000244BFE26A22F06F
:101DD0000602E26284F82400206A41F22152C0F631
:101DE000000241F28D5341F2755C00F1280EC0F6FD
:101DF0000003C0F6000C8EE80C106FF002020A60BF
:101E00008A682B4642F480728A604C31324600F078
:101E100017FA2068816801F460228168B2F5602FAA
:101E20000CBF41F4A00141F480118160002070BD1D
:101E3000026812F4702FB7D0A26A42F48012A26234
:101E400000684005B7D4BBE710B5044690F82400FD
:101E5000012804BF022010BD012084F82400204680
:101E6000FFF798FB20B1002084F82400012010BD6A
:101E700042F2044C2068A16AC4F2010C40F60172DF
:101E800091430CF57F7201F580719042A16237D0C9
:101E9000A16A21F48011A1624168490504D5A16AB3
:101EA000012363F30D31A162A16A0023C9044FF03D
:101EB000000144BFE16A21F00601E1626FF0020116
:101EC00084F824300160416841F02001416081685C
:101ED00001F46021B1F5602F06D190420AD1DCF8FF
:101EE000001011F4702F05D0816841F480118160D9
:101EF000002010BD816841F4A0018160002010BD68
:101F0000DCF8001011F4702FC2D0A16A41F48011E6
:101F1000A162DCF800104905C1D4C5E7014690F87C
:101F20002100022816D10868D1E90FC3026822F007
:101F30000E020260026822F001020260012000FA33
:101F400003F2CCF8042081F821000020002281F85F
:101F500020207047042088630120002281F820207F
:101F60007047000090F82110022923D102681168FF
:101F700021F00E0111602F211368C4F202018A4280
:101F800040F20401C4F2020123F00103136015DDE5
:101F90003023C4F202039A421CD04423C4F2020349
:101FA0009A421BD05823C4F202039A421CD14FF428
:101FB000803321E004218163012070470823C4F2AB
:101FC00002039A420ED01C23C4F202039A420BD1A0
:101FD000102311E04FF480730EE000BF4FF48053E4
:101FE0000AE000BF012307E001F1680C4FF08073A5
:101FF000624508BF4FF480130B60012180F8211067
:10200000426B002180F8201022B180B5904700215A
:10201000BDE880400846704710B5D0E90FCE016892
:10202000DCF800300A6823FA0EF35C072AD512F0B8
:10203000040427D00A68920603D40A6822F0040236
:102040000A602F22C4F20202914240F20402C4F25A
:1020500002025BDD3023C4F20203994272D04423B2
:10206000C4F20203994273D05823C4F20203994286
:1020700040F07A804FF480231360C16A002940F059
:1020800098806FE09C0727D512F0020424D00A68DC
:10209000920606D40A6822F00A020A60012280F839
:1020A00021202F22C4F20202914240F20402C4F223
:1020B00002023BDD3023C4F20203994260D0442384
:1020C000C4F2020399425FD05823C4F2020399423A
:1020D00060D14FF4003365E01B0743D512F00802CE
:1020E00008BF10BD0A6822F00E020A60012101FA41
:1020F0000EF2CCF80420816380F82110016B0022DD
:10210000002980F8202054D12CE000BF0823C4F21D
:102110000203994222D01C23C4F20203994223D124
:1021200040231360C16A002943D11BE00823C4F295
:10213000020399422CD01C23C4F20203994229D1F4
:1021400020232FE04FF480631360C16A89BB09E04C
:102150004FF480431360C16A59BB03E0042313604A
:10216000C16A31BB10BD00BF02F168044FF080634B
:10217000A14208BF4FF480031360C16AC9B9F1E7F7
:102180004FF400730EE000BF4FF400530AE000BFAD
:10219000022307E002F168044FF00073A14208BF78
:1021A0004FF400131360816A0022002980F8202078
:1021B000D8D0BDE810400847014600284FF0010084
:1021C00008BF70472DE9F0470A684FF6F873CBF661
:1021D000FD7302EB030C4CF6CD43CCF6CC43ACFBC9
:1021E000033C6FF00307002607EA9C07C4F20206CF
:1021F00001F10C0AC1E90F670227D1E9013E9AE813
:102200003004D1E9069881F82170176843F6F0761A
:10221000B7433B4343EA0E0323432B4343EA0A03FA
:1022200043EA090343EA0803136000228A6381F842
:10223000210081F820200020BDE8F0477047000011
:1022400090F820C0BCF1010F04BF02207047F0B528
:102250004FF0010E80F820E090F821C0BCF1010F92
:1022600026D14FF0020C80F821C04FF0000CC0F8CE
:1022700038C0D0E900C4C56AC66BDCF80070102C09
:1022800027F00107CCF80070006C0EFA00F07060C7
:102290000846CCF8043004BF10460A46CCF80800C3
:1022A000CCF80C20DCF8000045B140F00E000DE049
:1022B000002180F820100220F0BD00BF20F00400B3
:1022C000CCF80000DCF8000040F00A00CCF8000078
:1022D000DCF8000040F00100CCF800000020F0BD68
:1022E000B0B5044600F026F9054640F20000C2F2FF
:1022F00000000078611C18BF044400BF00F01AF908
:10230000401BA042FAD3B0BD2DE9F04F82B00E6859
:10231000002E00F0FD8041F20042C4F201020423CD
:1023200040F2004E904208BF03234FF6FF7CC4F2F8
:10233000010E009300240123C1F2100C4FF0000A9B
:102340004FF0000944E000BF012704F00C030F2206
:102350009A402BEA020207FA03F34FEA9A051A435E
:1023600046F825204E6840F20C45F202DEF80820BF
:1023700054BF22EA080242EA0802C4F20105CEF87C
:1023800008202A68B30254BF22EA080242EA08027F
:102390002A60B303DEF8042054BF22EA080242EAAE
:1023A0000802F303CEF80420DEF800204FF001030A
:1023B00054BF22EA080242EA0802CEF800200E6862
:1023C0000AF1010A36FA0AF204F1040400F0A080CE
:1023D00003FA0AFB16EA0B08F1D04E68664511DCD9
:1023E000122E55D8DFE806F0340A444854545454A9
:1023F0005454545454545454544C5000D1F80C90E8
:1024000046E000BF4FF6FF72C1F2210296420FDC98
:102410000022C1F2110296421AD00022C1F2120229
:10242000964215D00022C1F22102964210D02FE030
:102430000022C1F2220296420AD00022C1F23102E9
:10244000964205D00022C1F23202964220D100BF4E
:102450008A684AB1012A14BFC0F814B0C0F810B09D
:102460004FF0080914E000BF4FF0040910E000BF6E
:10247000CA6802F108090BE04FF0000908E000BF4C
:10248000CA6802F1040903E0CA6802F10C0900BF3E
:1024900022460646B8F5807F24BF203A04363768C6
:1024A0000F25954027EA050509FA02F22A43326012
:1024B000CA79D2067FF583AF41F21803C4F2020352
:1024C0001A68AEF57E7642F001021A601A6802F0D0
:1024D00001020192019A2AF0030256F802B040F676
:1024E0000002C4F20102904210D040F60042C4F251
:1024F000010290423FF428AF41F20002C4F201020F
:10250000009F904208BF02271FE700BF00271CE77B
:1025100002B0BDE8F08F0000C26802EA01039143F7
:1025200041EA034101617047002A08BF09040161C3
:102530007047000042F2C020C2F2000000687047FD
:1025400040F2000042F2C021C2F20000C2F20001DB
:1025500000780A68104408607047000080B542F2B5
:102560000000C4F20200016841F010010160032084
:1025700000F0C0F80F2000F005F800F05BF8002034
:1025800080BD0000B0B586B041F21801C4F202016E
:102590000A68044642F400620A60096801A801F46E
:1025A000006101910199694600F094FA00F0C8FABF
:1025B0004DF68361C4F21B31A0FB01014FF0FF30E7
:1025C00000EB914141F6501042F60042C2F2000089
:1025D000C4F2010240F2E7330025C0E90021C0E95E
:1025E00002530561856100F003FD054610B12846E0
:1025F00006B0B0BD41F65010C2F2000000F0A6FDDA
:1026000005460028F3D1192000F036F80F2C0DD81C
:10261000192021460022002500F040F840F2040075
:10262000C2F200000460284606B0B0BD012528466D
:1026300006B0B0BD82B041F21800C4F202000168D9
:10264000022241F001010160016801F001010191E4
:102650000199416841F080514160406800F080502C
:10266000009000980420C4F20100016862F31A612E
:10267000016002B070470000002848BF704700F0BA
:102680001F01012202FA01F11C2202EAD0004EF2DF
:102690000012CEF2000281507047000010B54EF6D5
:1026A0000C5CCEF2000CDCF80030C3F3022E8EF08E
:1026B0000704042C28BF0424BEF103034FF0FF3E9F
:1026C0000EFA04F438BF0023A14399400EFA03F335
:1026D0009A43114300F00F0200F160430901043AEC
:1026E00003F564436244002848BF02F10C031970EB
:1026F00010BD00004EF60C51CEF200010A684FF6F4
:10270000FF031A4060F30A2242F0806040F0FD703F
:102710000860704701280FD002282DD0102808D15A
:1027200041F20401C4F202010A6851F8040CC0012C
:1027300034D40020704700BF41F20400C4F202000C
:10274000C16940F202320A40B2F5817F04BF4FF402
:102750000040704701F44071B1F5407F2AD0B1F5D7
:10276000007F1CBF00207047006A49F64041800787
:1027700001EAE070704700BF80B500F0E1F941F276
:102780000401C4F2020109680222C1F3813102EBA3
:102790004101B0FBF1F0BDE880407047C2F38340D7
:1027A00015A3185CD2030DD440F60012C0F23D020E
:1027B000504313E050F8040C4FF22441800301EA27
:1027C000E07070470A6810A3C2F340429A5C41F27D
:1027D0000023C0F27A03B3FBF2F2504309684902C6
:1027E00048BF70474AF6AB214000CAF6AA21A0FBB9
:1027F00001014808704700BF0203040506070809E5
:102800000A0B0C0D0E0F1010010200002DE9F04113
:1028100082B00446007841F21C06C007C4F20206EA
:102820004AD030685FEAC00808D4306840F0805071
:102830003060306800F080500190019847F2000746
:10284000C4F200073868C00512D4386840F48070BC
:102850003860FFF76FFE05463868C00508D4FFF7FB
:1028600069FE401B6428F7D9032002B0BDE8F0815F
:10287000706810F4407012D0616801F440718842B1
:102880000DD0706840F24042C4F24222012320F48D
:10289000407113600023C0071360716026D1706817
:1028A000616820F440700843B8F1000F706003D4F1
:1028B000306820F0805030602068810707D556F8D6
:1028C000181CA26821F44041114346F8181CC006A8
:1028D00007D556F8180CE16820F48000084346F844
:1028E000180C002002B0BDE8F08100BFFFF722FE07
:1028F000054641F2883700BF70688007CFD4FFF7E4
:1029000019FE401BB8424FF00300F5D9EAE700007A
:10291000002804BF012070472DE9F04381B042F246
:102920000008C4F202080446D8F800000D4600F082
:10293000070088420CD2D8F8000020F00700284396
:10294000C8F80000D8F8000000F00700A8426CD1D9
:10295000206841F204098107C4F2020917D5410732
:1029600005D5D9F8001041F4E061C9F8001001075D
:1029700005D5D9F8001041F46051C9F80010D9F814
:102980000010A26821F0F0011143C9F80010C0073F
:1029900042D1D8F8000000F00700A8420CD9D8F8BE
:1029A000000020F007002843C8F80000D8F8000015
:1029B00000F00700A84238D12068410707D5D9F8B0
:1029C0000010E26821F4E0611143C9F8001000072B
:1029D00008D5D9F80000216920F4605040EAC10010
:1029E000C9F80000D9F8002002F00C00082841F2D4
:1029F0000020C0F27A0051D148F27203C2F3834141
:102A0000C0F60003595CD2033CD440F60010C0F27B
:102A10003D00484342E000BF606802280AD0012818
:102A20002AD159F8041C890308D4012001B0BDE85B
:102A3000F08300BF59F8041C8901F6D5D9F80010BD
:102A400021F003010843C9F80000FFF773FD0646B3
:102A500041F28837D9F80000616800F00C00B0EB53
:102A6000810F96D0FFF766FD801BB842F2D9032094
:102A700001B0BDE8F08300BF59F8041C8907D4D524
:102A8000DCE700BFD9F8002048F27003C2F34042EF
:102A9000C0F600039A5C4843B0FBF2F0D9F800108E
:102AA00048F25802C1F30311C0F60002515C40F233
:102AB000080220FA01F140F20400C2F200000068AE
:102AC000C2F200021160FFF75DFD002001B0BDE819
:102AD000F08300000F22026041F20402C4F20202FD
:102AE000136803F003034360136803F0F00383608B
:102AF000136803F4E063C36012684FF4E06303EA11
:102B0000D202026142F20000C4F20200006800F04A
:102B1000070008607047000040F2080041F204011D
:102B2000C2F20000C4F202010068096848F26802BB
:102B3000C1F30221C0F60002515CC840704700009A
:102B400040F2080041F20401C2F20000C4F20201A6
:102B50000068096848F26802C1F3C221C0F60002A9
:102B6000515CC84070470000002804BF0120704736
:102B70002DE9F04182B00446007841F20006C0071A
:102B8000C4F202060CD0706800F00C00042840F07B
:102B900081803068800303D56068002800F04E8192
:102BA000207880071BD5706810F00C0F09D0706872
:102BB00000F00C00082840F08B807068C00300F122
:102BC00087803068800703D52069012840F036816E
:102BD0003068616920F0F80040EAC1003060207878
:102BE000000713D4207840072CD4E569002D00F0AD
:102BF0002081706800F00C00082840F0AF80012DA3
:102C000040F00C81012002B0BDE8F081A0690028ED
:102C100000F08C800020C4F242200121C0F8801412
:102C2000FFF788FC054600BF706A800700F1BA8094
:102C3000FFF780FC401B0228F6D9032002B0BDE854
:102C4000F08100BFF0695FEAC00808D4F06940F085
:102C50008050F061F06900F080500090009847F2D9
:102C60000007C4F200073868C0054DD4386840F446
:102C700080703860FFF75EFC054600BF3868C0050D
:102C800042D4FFF757FC401B6428F7D9032002B059
:102C9000BDE8F081706800F00C00082803D170686E
:102CA000C0033FF576AF6068002800F00981B0F5F9
:102CB000A02F00F01D81B0F5803F00F01D8130682D
:102CC00020F480303060306820F4802017E100BFAD
:102CD0002069002840F20000C4F2422000F08C80FD
:102CE00001210160FFF726FC054600BF3068800720
:102CF0003FF56EAFFFF71EFC401B0228F6D90320FC
:102D000002B0BDE8F08100BFE068002800F09A80C2
:102D1000052800F0B180012800F0B280306A20F070
:102D200001003062306A20F00400ACE00020C4F200
:102D300042200021C0F88014FFF7FCFB054600BFCD
:102D4000706A80077FF54EAFFFF7F4FB401B022847
:102D5000F6D9032002B0BDE8F08100BF0027C4F21D
:102D6000422700203866FFF7E5FB022D05460DD10E
:102D70003068800140F1D680FFF7DCFB401B022861
:102D80004FF00300F4D902B0BDE8F0813068800153
:102D90004FD5FFF7CFFB401B02284FF00300F5D9BA
:102DA000F1E700BF40F20800C2F20000006844F6FC
:102DB000D351C1F26201A0FB0101480A019000BF9A
:102DC00000BF0198411E002801913FF40BAF00BFE6
:102DD0000198411E002801913FF404AF00BF019803
:102DE000411E002801913FF4FDAE00BF0198411E35
:102DF00000280191E4D1F5E600210160FFF79AFB7C
:102E0000054600BF306880077FF5E9AEFFF792FB0B
:102E1000401B02284FF00300F4D9B4E77068216A20
:102E200000F480328A4209D1616A00F4701088424D
:102E300004D1002002B0BDE8F08100BF012002B043
:102E4000BDE8F081306A20F001003062306A20F085
:102E500004003062FFF76EFB054641F2883700BF81
:102E6000306A800722D5FFF765FB401BB8424FF060
:102E70000300F5D987E700BF306A40F004003062F4
:102E8000306A40F001003062FFF754FB054641F222
:102E9000883700BF306A800708D4FFF74BFB401B20
:102EA000B842F7D9032002B0BDE8F081B8F1000FB5
:102EB0003FF59BAEF06920F08050F06195E600BFD1
:102EC000306820F480303060306820F4802030603A
:102ED000FFF730FB054600BF306880037FF560AE2A
:102EE000FFF728FB401B64284FF00300F4D94AE7A2
:102EF000306840F480203060306840F480303060CA
:102F0000FFF718FB054600BF306880033FF548AE69
:102F1000FFF710FB401B6428F6D9032002B0BDE880
:102F2000F08100BF206AB0F5803F05D17168A268CA
:102F300021F40031114371607168626A21F47411E7
:102F400011430843706001203866FFF7F3FA044626
:102F5000306880013FF56DAFFFF7ECFA001B0228E7
:102F60004FF00300F4D90EE77047000070470000EF
:102F700090F83C20012A4FF0020236D010B580F8BC
:102F80003D200268D2F804E0D2F808C00C682EF0A8
:102F90007003234340F2FF74C4F20004A242536062
:102FA0000ADCB2F1804F13D040F20043C4F20003B8
:102FB0009A420DD011E000BF42F60043C4F2010373
:102FC0009A4205D040F60003C4F200039A4204D1AD
:102FD00049682CF08003194391600121002280F898
:102FE0003D1080F83C20BDE81040104670470000BE
:102FF000002804BF0120704710B5044690F83D003A
:1030000028B9002084F83C00204600F067F8022030
:1030100084F83D00206840F2FF730268C4F20003A8
:1030200042F6004C9842C4F2010C15DCB0F1804F1E
:103030001AD040F20041C4F20001884214D09842F4
:1030400018DCB0F1804F1DD040F20041C4F2000105
:10305000884217D01AE000BF604505D040F6000155
:10306000C4F200018842EAD1A16822F070020A434A
:103070009842E6DD604505D040F60001C4F200014B
:10308000884203D1216922F440720A43A36922F0E5
:103090008001D4F804E0E268194360450160C2622F
:1030A000C0F828E002D16169CCF8301001214161FB
:1030B000002084F8461084F83E1084F83F1084F80D
:1030C000401084F8411084F8421084F8431084F8CA
:1030D000441084F8451084F83D1010BD80B582B0CE
:1030E000006840F60001C4F2000188421ED040F2A0
:1030F0000041C4F20001884225D141F21C00C4F213
:1031000002000168002241F0020101600068002114
:1031100000F00200019001981D20FFF7BFFA1D206A
:1031200002B0BDE88040FFF7A7BA00BF41F21C0023
:10313000C4F20200016841F004010160006800F07F
:1031400004000090009802B080BD000090F83D108F
:1031500001291CBF01207047022180F83D10006842
:1031600040F2FF72C168C4F20002904241F00101D6
:10317000C16009DCB0F1804F12D040F20041C4F2CE
:10318000000188420CD012E042F60041C4F2010175
:10319000884205D040F60001C4F20001884206D101
:1031A000816801F00701062904BF0020704701680B
:1031B00041F00101016000207047000090F83C20C0
:1031C000012A4FF0020200F0C58080B580F83D2052
:1031D000D0F800C04FF67772DCF8083023EA02021C
:1031E000CCF808200B684F2B28DC1F2B44DD202B4C
:1031F00045D0302B43D0402B40F0AE80D1F804E0D6
:10320000C968DCF82030DCF8202022F00102CCF87C
:103210002020DCF8182022F0F00242EA011123F00D
:103220000A0242EA0E02CCF81810CCF82020DCF892
:10323000081041F0470121F0300180E06F2B27DDBD
:10324000B3F5005F48D0B3F5805F7AD0702B40F0C3
:103250008380D1E901E3C968DCF8082043EA0E0362
:1032600022F47F4243EA01211143CCF80810DCF834
:10327000081041F0770162E00BB1102B6CD1DCF843
:10328000081021F07001194341F0070157E000BF19
:10329000502B35D0602B5FD1D1F804E0C968DCF841
:1032A0002030DCF8202022F01002CCF82020DCF8BE
:1032B000182022F4704242EA013123F0A00242EACF
:1032C0000E12CCF81810CCF82020DCF8081041F0D1
:1032D000670121F0100132E0D1E901E3C968DCF8AF
:1032E000082043EA0E0322F47F4243EA01211143FE
:1032F000CCF80810DCF8081041F480411FE000BF52
:10330000D1F804E0C968DCF82030DCF8202022F095
:103310000102CCF82020DCF8182022F0F00242EA6A
:10332000011123F00A0242EA0E02CCF81810CCF880
:103330002020DCF8081041F0570121F02001CCF8E2
:1033400008100022012180F83D10002180F83C1077
:10335000BDE88040104670470122F3E77047000047
:1033600010B5016804460869800744BFC8685FEA71
:10337000807039D40869400744BFC8685FEA40706C
:103380003ED40869000744BFC8685FEA007045D4AE
:103390000869C00644BFC8685FEAC0604AD40869CB
:1033A000C0071CBFC8685FEAC07051D10869000639
:1033B00044BFC8685FEA006052D40869400644BF51
:1033C000C8685FEA406053D40869800646BFC86891
:1033D0005FEA806010BD6FF0200220460A61BDE800
:1033E0001040FFF7C3BD00BF6FF00200086101206D
:1033F00020778869800743D02046FFF7AFFF45E07C
:103400006FF00400086102202077886910F4407F83
:1034100040D02046FFF7A2FF42E000BF6FF0080057
:10342000086104202077C86980073DD02046FFF757
:1034300095FF3FE06FF01000086108202077C86911
:1034400010F4407F3AD02046FFF788FF3CE000BFF1
:103450006FF001000861204600F024FA2168A5E71A
:103460006FF0800008612046FFF77EFD2168A4E729
:103470006FF040000861204600F02AFA2168A3E7B7
:10348000204600F025F8204600F09CF92168002035
:1034900020776FE7204600F01BF8204600F092F9F5
:1034A0002168002020776CE7204600F011F82046C4
:1034B00000F088F921680020207769E7204600F0B5
:1034C00007F8204600F07EF921680020207766E7A3
:1034D0007047000090F83C30012B04BF0220704779
:1034E0004FEAB202032A3DD82DE9F043DFE802F0AB
:1034F00002407CB6036842F600461D6A1A6AC4F2AE
:10350000010622F001021A621A465C6852F818CFCE
:10351000B3428E68D1F800E025F0020545EA0605C1
:103520000CD1CE68D1E9057824F4407425F00C055F
:1035300026F004063C43354344EA08042CF07307A4
:1035400047EA0E075C609F614F6809695F631D620F
:103550009F6947F008079F619F6927F004079F61F3
:10356000ACE000BF0121002280F83C2008467047F3
:10357000036842F600461D6A1A6AC4F2010622F088
:1035800010021A621A46D3F804C052F8184FB34218
:103590008E68D1F800E025F0200545EA06150FD128
:1035A000CE68D1E905986FF0400725F0C00507EA1D
:1035B000061635432CF4406748EA090647EA860CAC
:1035C00024F4E64444EA0E27C3F804C09F614F6820
:1035D00009699F631D629F6947F400679F619F6946
:1035E00027F480679F6168E0036842F600461D6A21
:1035F0001A6AC4F2010622F480721A621A46D3F8DB
:1036000004C052F81CEFB3428E680C6825F40075B4
:1036100045EA06250FD1CE68D1E90598360240F279
:10362000FF4725F44065BE4335432CF4405748EA34
:10363000090647EA061C2EF073072743C3F804C0A7
:10364000DF614F680969DF631D62DF6947F00807C2
:10365000DF61DF6927F00407DF612FE0036842F6CE
:103660000047D3F820C01A6AC4F2010722F480523E
:103670001A621A465C6852F81C5FD1F800E08E6846
:10368000BB4204D14F6924F4804444EA87142CF4EB
:10369000005747EA063725F4E64646EA0E265C6000
:1036A000DE614E6809691E641F62DF6947F40067C6
:1036B000DF61DF6927F48067DF610902136819435E
:1036C00011600021BDE8F043002280F83C2008464C
:1036D00070470000002804BF0120704710B5044661
:1036E00090F83D0028B9002084F83C00204600F006
:1036F00067F8022084F83D00206840F2FF730268FA
:10370000C4F2000342F6004C9842C4F2010C15DCEE
:10371000B0F1804F1AD040F20041C4F2000188425B
:1037200014D0984218DCB0F1804F1DD040F2004117
:10373000C4F20001884217D01AE000BF604505D0EE
:1037400040F60001C4F200018842EAD1A16822F0EB
:1037500070020A439842E6DD604505D040F600015C
:10376000C4F20001884203D1216922F440720A4365
:10377000A36922F08001D4F804E0E26819436045AF
:103780000160C262C0F828E002D16169CCF8301053
:1037900001214161002084F8461084F83E1084F82D
:1037A0003F1084F8401084F8411084F8421084F8E7
:1037B000431084F8441084F8451084F83D1010BD7F
:1037C000704700007047000041B1082910D004295B
:1037D00014BF00F1410200F13F020BE090F83E20DF
:1037E000012A1CBF01207047022280F83E2013E00E
:1037F00000F140021278012A1CBF0120704702220A
:10380000082907D0042914BF80F8412080F83F2000
:1038100002E000BF80F84020006801F01F01012293
:10382000036A8A4023EA02010162036A42F64441C4
:10383000C4F201011A43A1F14403984202620FD07D
:1038400040F2FF71C4F20001884213DCB0F1804FF6
:103850001CD040F20041C4F20001884216D01AE0A8
:103860000A6842F400420A6040F2FF71C4F20001AB
:103870008842EBDD42F60041C4F20101884205D0E6
:1038800040F60001C4F20001884204D1816801F0D1
:103890000701062903D0016841F001010160002001
:1038A00070470000B0B540F200450446C4F2000580
:1038B000006805F59431884202D1FEF741FE206888
:1038C000A84218BFB0BDBDE8B04001F067BD000020
:1038D000704700007047000010B504460068416959
:1038E00094F84120212A56D111F0800153D000BF15
:1038F000206850E8050F216820F0800041E80502AB
:10390000DAB1206850E8050F216820F0800041E816
:10391000050292B1206850E8050F216820F0800070
:1039200041E805024AB1206850E8050F216820F0FF
:10393000800041E80502002ADAD1A06B002818BFF8
:10394000FEF7ECFA206850E8030F216820F0C00071
:1039500041E80302DAB1206850E8030F216820F043
:10396000C00041E8030292B1206850E8030F2168CB
:1039700020F0C00041E803024AB1206850E8030F7C
:10398000216820F0C00041E80302002ADAD120209B
:1039900084F841002068406994F84210222940F0E0
:1039A000A78010F0400000F0A38000BF206850E81E
:1039B000050F216820F0400041E80502DAB12068D7
:1039C00050E8050F216820F0400041E8050292B15F
:1039D000206850E8050F216820F0400041E805020A
:1039E0004AB1206850E8050F216820F0400041E806
:1039F0000502002ADAD1E06B002818BFFEF78EFA24
:103A0000206850E8030F216820F4907041E8030219
:103A1000BAB3206850E8030F216820F4907041E8A1
:103A2000030272B3206850E8030F216820F49070FD
:103A300041E803022AB3206850E8030F216820F40C
:103A4000907041E80302002ADAD11AE0206850E8B9
:103A5000050F216820F0010041E80502DAB1206875
:103A600050E8050F216820F0010041E8050292B1FD
:103A7000206850E8050F216820F0010041E80502A8
:103A80004AB1206850E8050F216820F0010041E8A4
:103A90000502002ADAD1206B012824D1206850E8E1
:103AA000030F216820F0100041E80302DAB120681A
:103AB00050E8030F216820F0100041E8030292B1A2
:103AC000206850E8030F216820F0100041E803024D
:103AD0004AB1206850E8030F216820F0100041E847
:103AE0000302002ADAD1202084F84200002020635B
:103AF000002010BD70470000B0B582B004460068D9
:103B00000168C368426901F02F05202D03F02005EC
:103B100006D12DB1204602B0BDE8B04001F0B6B9E3
:103B20005FEA017C1EBF02F0010E03F4907212EBFB
:103B30000E0243D1226BCD0618D5012A16D113F0FF
:103B4000100213D000210191016801914168019197
:103B50000199406940063BD4A08DE18DE28D002A99
:103B600018BF884240F0F28102B0B0BD0A0640F1B1
:103B7000E78013F0800200F0E38094F841102129DF
:103B8000F2D1A168B1F5805F03D12169002900F06D
:103B90006382216A4A1C226209784160E18C013902
:103BA0000A04E184E0D1C16821F08001C160C168EC
:103BB00041F04001C16002B0B0BD00BFCA0718BFEC
:103BC00013F4807240F0D0804A0700F1D380D8E02F
:103BD000E06B016849688AB2002AC5D0A38D9A4279
:103BE000C2D2E1858069202800F09E80206850E8DC
:103BF000030F216820F4807041E80302DAB12068E5
:103C000050E8030F216820F4807041E8030292B16C
:103C1000206850E8030F216820F4807041E8030217
:103C20004AB1206850E8030F216820F4807041E811
:103C30000302002ADAD1206850E8050F216820F03D
:103C4000010041E80502C2B3206850E8050F216871
:103C500020F0010041E805027AB3206850E8050F22
:103C6000216820F0010041E8050232B3206850E8E5
:103C7000050F216820F0010041E80502002ADAD191
:103C80001BE000BF206850E8050F216820F04000CD
:103C900041E80502DAB1206850E8050F216820F0FC
:103CA000400041E8050292B1206850E8050F216804
:103CB00020F0400041E805024AB1206850E8050FB5
:103CC000216820F0400041E80502002ADAD12020D6
:103CD00084F8420000202063206850E8030F216828
:103CE00020F0100041E80302DAB1206850E8030F29
:103CF000216820F0100041E8030292B1206850E8EA
:103D0000030F216820F0100041E803024AB1206847
:103D100050E8030F216820F0100041E80302002A58
:103D2000DAD1E06BFEF7FAF802206063A08DE18D36
:103D3000401A81B2204602B0BDE8B040FFF7CABDCC
:103D400049067FF511AF13F040013FF40DAFC16894
:103D500021F04001C1602021204684F8411002B0CA
:103D6000BDE8B04000F0C8BC626C42F00102626481
:103D70004A0706D5BEF1000F03D0626C42F0020282
:103D800062648A0706D5BEF1000F03D0626C42F070
:103D900004026264BCF1000F06D55EEA050203D09E
:103DA000626C42F008026264626C002A3FF4DCAE8E
:103DB000890604D51DB1204601F068F820684069E5
:103DC000616C00F0400001F00801401800F0B6807E
:103DD000206850E8030F216820F4907041E8030246
:103DE000BAB3206850E8030F216820F4907041E8CE
:103DF000030272B3206850E8030F216820F490702A
:103E000041E803022AB3206850E8030F216820F438
:103E1000907041E80302002ADAD11AE0206850E8E5
:103E2000050F216820F0010041E80502DAB12068A1
:103E300050E8050F216820F0010041E8050292B129
:103E4000206850E8050F216820F0010041E80502D4
:103E50004AB1206850E8050F216820F0010041E8D0
:103E60000502002ADAD1206B012824D1206850E80D
:103E7000030F216820F0100041E80302DAB1206846
:103E800050E8030F216820F0100041E8030292B1CE
:103E9000206850E8030F216820F0100041E8030279
:103EA0004AB1206850E8030F216820F0100041E873
:103EB0000302002ADAD1202084F842000020206387
:103EC00020684069400640F1C180206850E8050F35
:103ED000216820F0400041E80502DAB1206850E88E
:103EE000050F216820F0400041E8050292B12068EA
:103EF00050E8050F216820F0400041E805024AB172
:103F0000206850E8050F216820F0400041E80502D4
:103F1000002ADAD1E06B002800F0988044F68D3159
:103F2000C0F600014163FEF71DF800283FF41CAE07
:103F3000E06B416B02B0BDE8B04008472046FFF798
:103F4000D9FD0020606402B0B0BD00BF401A00BFC0
:103F5000216851E8031F226821F4907142E803139D
:103F6000BBB3216851E8031F226821F4907142E835
:103F7000031373B3216851E8031F226821F4907181
:103F800042E803132BB3216851E8031F226821F490
:103F9000907142E80313002BDAD11AE0216851E84E
:103FA000051F226821F0010142E80513DBB12168F9
:103FB00051E8051F226821F0010142E8051393B181
:103FC000216851E8051F226821F0010142E805132C
:103FD0004BB1216851E8051F226821F0010142E838
:103FE0000513002BDAD1202184F84210002121632F
:103FF000216851E8031F226821F0100142E80313F1
:10400000DBB1216851E8031F226821F0100142E86A
:10401000031393B1216851E8031F226821F01001B6
:1040200042E803134BB1216851E8031F226821F0D5
:10403000100142E80313002BDAD1022281B220469C
:10404000626302B0BDE8B040FFF744BC204602B056
:10405000BDE8B040FFF74EBD216A31F8022B6FF387
:104060005F224260216299E5002804BF0120704769
:1040700010B5044690F8410028B9002084F84000AB
:10408000204600F063F8242084F841002068D4E939
:104090000212C36823F40053C360036923F440533E
:1040A0001A430261D4E904231143C268194341F25F
:1040B0000C639A431143C1604169A26921F44071C4
:1040C000114343F60002C4F201029042416103D061
:1040D000FEF722FD02E000BFFEF732FDD4E9002327
:1040E000192148439900B0FBF1F048F21F5CC5F27A
:1040F000EB1CA0FB0C314FF69C734909C0F6FF7313
:1041000001FB0300322303EB0010A0FB0C03F020A3
:1041100000EA531000EB0110C3F343110844906010
:104120001069202120F490401061506920F02A008D
:104130005061D06840F40050D0600020606484F882
:10414000411084F84210606310BD00002DE9F04179
:1041500086B00446006844F20041C4F20001002722
:1041600088420597CDE90377029753D043F60001C3
:10417000C4F20101884240F0A28041F21807C4F263
:104180000207386840F6000540F48040386038681F
:10419000C4F2010500F480400190019838680DF1E7
:1041A000080840F0040038603868414600F0040018
:1041B000019001984FF400700290022003900320B8
:1041C00005902846FEF7A0F84FF480600290002684
:1041D00028464146CDE90366FEF796F841F6C80544
:1041E000A7F57C60C2F20005802120224FF4005325
:1041F000C5E900062846C5E90261C5E90466C5E9C6
:104200000623FDF7D9FF00284FF0250618BFFDF75C
:104210002FFA4AE041F21C00C4F20200016841F2A8
:10422000180541F4003101600068C4F2020500F491
:10423000003001900198286840F6000840F0040022
:1042400028602868C4F2010800F004000190019879
:104250000420029002200390032002AE0590404605
:104260003146FEF751F80820CDE9020740463146B5
:104270000497FEF749F8A5F6AC7041F60C15C2F2AA
:10428000000580214FF400622023C5E9000728467D
:10429000C5E90271C5E90472C5E90637FDF78CFF6F
:1042A0004FF0260608B1FDF7E3F930460021002261
:1042B000E5636C62FEF7F2F93046FEF7DDF906B011
:1042C000BDE8F08170B582B0044690F84200202825
:1042D0000AD113460A4600294FF0010018BF002BEF
:1042E00006D102B070BD00BF022002B070BD00BF99
:1042F000002522202563A262A385656484F842001C
:104300002168E06B44F6155C44F6756E44F6993608
:10431000C0F6000CC0F6000EC0F600060431C0E97D
:104320000ACEC0E90C65FDF78BFF01952068016896
:104330000191406801900198206928B3206850E8F5
:10434000030F216840F4807041E80302E2B1206865
:1043500050E8030F216840F4807041E803029AB1ED
:10436000206850E8030F216840F4807041E80302A0
:1043700052B1206850E8030F216840F4807041E892
:104380000302002ADAD100BF206850E8050F216837
:1043900040F0010041E80502BAB3206850E8050F7B
:1043A000216840F0010041E8050272B3206850E83E
:1043B000050F216840F0010041E805022AB320689A
:1043C00050E8050F216840F0010041E80502002A8D
:1043D000DAD11AE0206850E8050F216840F040006B
:1043E00041E80502DAB1206850E8050F216840F085
:1043F000400041E8050292B1206850E8050F2168AD
:1044000040F0400041E805024AB1206850E8050F3D
:10441000216840F0400041E80502002ADAD100207E
:1044200002B070BD90F84230202B07D100294FF028
:10443000010318BF002A05D1184670470223184609
:10444000704700BF00230363816222218285C285F9
:10445000436480F842100169006819B1C16841F4F1
:104460008071C160416941F001014161C16841F061
:104470002001C16018467047704700007047000077
:104480002DE9F04381B0044690F84100202840F027
:10449000B180884600294FF0010000F0D680164612
:1044A000002A00F0D2800020606421201D4684F89C
:1044B0004100FEF73FF8A684E684A1680646B1F500
:1044C000805F03D12069002800F0988047464FF0B4
:1044D0000008E18C2068002900F0968005F10109B0
:1044E0000BE000BF47B317F8011B4160E18C0139B5
:1044F000E184E18C002900F0878001680906F1D48D
:10450000B9F1000F0AD0EDB1FEF714F8801BA842F4
:1045100018D8206801680906F6D5E3E7016809069E
:10452000E0D4016809065CBF01685FEA0161D9D483
:1045300001680906F2D5D5E738F8021B00276FF3AA
:104540005F21D2E7206850E8030F216820F4D07083
:1045500041E80302BAB3206850E8030F216820F451
:10456000D07041E8030272B3206850E8030F21685D
:1045700020F4D07041E803022AB3206850E8030F0A
:10458000216820F4D07041E80302002ADAD11AE051
:10459000206850E8050F216820F0010041E805027D
:1045A000DAB1206850E8050F216820F0010041E8E9
:1045B000050292B1206850E8050F216820F0010043
:1045C00041E805024AB1206850E8050F216820F053
:1045D000010041E80502002ADAD1202084F84100D8
:1045E00084F84200002084F84000032001B0BDE8B8
:1045F000F08300BF022001B0BDE8F0830027E18C0A
:10460000206800297FF46AAF0168490619D4FDB11A
:10461000691C0DD10168490613D4016849065CBFC5
:1046200001685FEA41610CD401684906F2D508E0EF
:10463000FDF780FF801BA8420AD82068006840066A
:10464000F6D5202084F84100002001B0BDE8F083B9
:10465000206850E8030F216820F4D07041E803027D
:10466000002A3ED0206850E8030F216820F4D07063
:1046700041E80302AAB3206850E8030F216820F440
:10468000D07041E8030262B3206850E8030F21684C
:1046900020F4D07041E80302002AD9D121E000BF04
:1046A000206850E8050F216820F0010041E805026C
:1046B000002A3FF492AF206850E8050F216820F0EF
:1046C000010041E80502002A3FF487AF206850E866
:1046D000050F216820F0010041E80502002A3FF49F
:1046E0007CAF206850E8050F216820F0010041E808
:1046F0000502002AD4D170E770470000FEE70000F1
:104700002DE9F04F89B00120FDF7EAFD40F2700578
:10471000C2F20005D5E905014A1C8142AA610AD905
:1047200048B10020A86140F60000C4F201004FF437
:104730008071FDF7F1FEA86B01282DD1D5E90F019D
:104740004A1C81422A6427D300202864D5E9010647
:10475000D5E90A7A03F026F908903046894603F035
:1047600021F9804638468B4603F01CF9074650462F
:104770000C4603F017F96E6BCDE9008BCDE902749E
:10478000CDE9040142F23410089AC2F200000EA1F1
:104790004B46069602F01AF9286B01280ED100202C
:1047A000286341F25400C2F20000841E4FF47A756F
:1047B00034F8020F00F074FC013DF9D109B0BDE8F6
:1047C000F04F00F0F5BC00BF687A203D20252E3266
:1047D000662C706572696F643D252E32662C6D61A2
:1047E00078203D20252E32662C6D696E203D2025D7
:1047F0002E32662C637572203D2025640A0000006D
:10480000B0B584B041F6240042F20041C2F200008B
:10481000C4F2010100244FF4202201250473047521
:10482000C261C0E9001484600561FDF749F9002800
:1048300018BFFCF71DFF41F62400C2F2000001A9D9
:10484000CDE901450394FCF7A3FF002818BFFCF74E
:104850000FFF04B0B0BD000010B584B041F65400A5
:1048600042F60001C2F20000C4F20101002201245C
:104870004FF4602304730275C361C0E900128260C3
:104880000461FDF71DF9002818BFFCF7F1FE0220B6
:10489000039041F65400C2F2000001A9CDE90144A1
:1048A000FCF776FF002818BFFCF7E2FE04B010BD4D
:1048B00080B582B041F21400C4F202000168002207
:1048C00041F0010101600068002100F00100019049
:1048D00001980B20FDF7E2FE0B20FDF7CDFE0F2027
:1048E00000210022FDF7DAFE0F20FDF7C5FE1020A3
:1048F00000210022FDF7D2FE102002B0BDE880406A
:10490000FDF7BABE70B584B041F21800C4F20200DF
:10491000016840F6000441F0200101600168C4F222
:10492000010401F02001009100990168002241F08A
:104930000401016001684FF4887501F004010091E1
:1049400000990168002641F00801016000684FF4F9
:10495000887100F00800009000982046FDF7E4FD03
:1049600001200095CDE9010602206D460390204606
:104970002946FDF7C9FC4FF47040CDE9000604F567
:10498000806029460296FDF7BFFC04B070BD0000B0
:1049900080B586B041F698100021C2F2000040F2C6
:1049A000004242F20F7C0591CDE90311CDE90011DF
:1049B000C4F200024723C0E9021C01618021C0E962
:1049C00000238161FEF714FB002818BFFCF750FE9E
:1049D0004FF48050029041F69810C2F2000002A9F4
:1049E000FEF7ECFB002818BFFCF742FE41F69810DA
:1049F000C2F200006946FEF7BBFA002818BFFCF7B8
:104A000037FE06B080BD000010B58EB041F6E01054
:104A10000021C2F2000040F6000209240D91CDE908
:104A20000B110991CDE90711CDE90511CDE903116C
:104A3000CDE90111C4F200024723C0E9021401616B
:104A40008021C0E900238161FEF7D2FA002818BF57
:104A5000FCF70EFE4FF480500A9041F6E010C2F2CF
:104A600000000AA9FEF7AAFB002818BFFCF700FE09
:104A700041F6E010C2F20000FEF72CFE002818BF3D
:104A8000FCF7F6FD41F6E0100024C2F2000008A990
:104A9000CDE90844FEF76CFA002818BFFCF7E8FDE2
:104AA000602001900520CDE9020441F6E010C2F239
:104AB000000001A90C220594FEF70CFD002818BF88
:104AC000FCF7D6FD0EB010BD80B541F6282043F6A8
:104AD0000001C2F20000C4F2010100234FF00C0CEF
:104AE0004FF4E13280E80E00C0E90333C0E905C3AA
:104AF000C361FFF7B9FA002808BF80BDBDE8804058
:104B0000FCF7B6BD80B541F6702044F20041C2F218
:104B10000000C4F2000100234FF00C0C4FF41652B9
:104B200080E80E00C0E90333C0E905C3C361FFF7A5
:104B30009BFA002808BF80BDBDE88040FCF798BD07
:104B4000FEE70000FEE7000070470000017803293F
:104B500009D14078012818BF704740F27000C2F2B6
:104B6000000001210170704770470000704700008D
:104B70007047000041F65010C2F20000FEF7F0BB93
:104B800041F69810C2F20000FEF7EABB406A00212D
:104B9000C185C184FEF7AEBF406A01684A6990F8DA
:104BA0004130212B2DD112F080022AD00021C18466
:104BB000016851E8031F026821F0C00142E80313B5
:104BC000DBB1016851E8031F026821F0C00142E82F
:104BD000031393B1016851E8031F026821F0C0017B
:104BE00042E803134BB1016851E8031F026821F04A
:104BF000C00142E80313002BDAD1202180F84110D4
:104C00000168496990F84220222A40F07D8011F025
:104C1000400179D00021C185016851E8031F026875
:104C200021F4907142E80313BBB3016851E8031FFC
:104C3000026821F4907142E8031373B3016851E8EC
:104C4000031F026821F4907142E803132BB301683B
:104C500051E8031F026821F4907142E80313002B0E
:104C6000DAD11AE0016851E8051F026821F001015C
:104C700042E80513DBB1016851E8051F026821F025
:104C8000010142E8051393B1016851E8051F02686C
:104C900021F0010142E805134BB1016851E8051FFD
:104CA000026821F0010142E80513002BDAD1016B03
:104CB000012924D1016851E8031F026821F0100185
:104CC00042E80313DBB1016851E8031F026821F0D9
:104CD000100142E8031393B1016851E8031F026811
:104CE00021F0100142E803134BB1016851E8031FA2
:104CF000026821F0100142E80313002BDAD12021D1
:104D000080F8421000210163416C41F010014164C0
:104D1000FEF7F0BE0168406A0968890600F19F80CD
:104D20000021C185016851E8031F026821F48071E8
:104D300042E80313E3B1016851E8031F026821F45C
:104D4000807142E803139BB1016851E8031F0268B8
:104D500021F4807142E8031353B1016851E8031F45
:104D6000026821F4807142E80313002BDAD100BFFE
:104D7000016851E8051F026821F0010142E80513AE
:104D8000BBB3016851E8051F026821F0010142E848
:104D9000051373B3016851E8051F026821F0010192
:104DA00042E805132BB3016851E8051F026821F0A2
:104DB000010142E80513002BDAD11AE0016851E83D
:104DC000051F026821F0400142E80513DBB10168CC
:104DD00051E8051F026821F0400142E8051393B134
:104DE000016851E8051F026821F0400142E80513FF
:104DF0004BB1016851E8051F026821F0400142E80B
:104E00000513002BDAD1202180F84210016B012913
:104E100025D100BF016851E8031F026821F010018D
:104E200042E80313DBB1016851E8031F026821F077
:104E3000100142E8031393B1016851E8031F0268AF
:104E400021F0100142E803134BB1016851E8031F40
:104E5000026821F0100142E80313002BDAD100218F
:104E60004163016B012918BFFFF706BB818DFEF777
:104E700031BD0000406A01214163016B012918BF67
:104E8000FFF7FCBA818D4908FEF724BD81B090F888
:104E90004210222921D183680246B3F5805F09D1EF
:104EA00052F8281F52F8183C002B63D003685B6847
:104EB0000AE000BF52F8281F13B90369002BF5D090
:104EC00003685B6803F07F030B70116801311160A8
:104ED000C18D01390A04C18502D001B0704700BFFD
:104EE0000168CA6822F02002CA60CA6822F480728F
:104EF000CA604A6922F001024A61202180F842100A
:104F000000214163026B012A3CD10163016851E831
:104F1000031F026821F0100142E80313DBB10168AE
:104F200051E8031F026821F0100142E8031393B116
:104F3000016851E8031F026821F0100142E80313E1
:104F40004BB1016851E8031F026821F0100142E8EB
:104F50000313002BDAD101680A68D20606D50022B5
:104F600000920A680092496800910099818D01B011
:104F7000FEF7B0BC026852686FF35F2221F8022B83
:104F80008162A5E701B0FFF777BA000010B541F6DE
:104F90002824C2F20004204600F016F82046BDE89E
:104FA0001040FEF7A9BD000010B541F67024C2F212
:104FB0000004204600F008F82046BDE81040FEF747
:104FC0009BBD0000FEE70000F0B581B041F6B825BA
:104FD000C2F20005D5F84C1195F89522414082F0B7
:104FE000010211434FF000072E4604BF4FF4A6778D
:104FF00006F5A676D5F8981295F8E123414082F09F
:105000000102114304BF4FF4267705F52676D5F843
:10501000E41395F82D25414082F00102114304BFAD
:105020004FF4797705F57976D5F8301595F8792626
:10503000484082F00101084308BF4FF4A667E859D1
:105040000068016808BF05F5A666C9064FF00001B3
:105050005CBF01B0F0BD0091016800914068009014
:105060000098E859FEF738FCEC59E06B006841689D
:1050700072682AB106F10800C1F580719047EC59B9
:1050800006F1080528464FF48071FBF77BF92046AE
:1050900029464FF4807201B0BDE8F040FFF712B925
:1050A0002DE9F04F81B040F27005B0F5C86FC2F243
:1050B00000055DD9E96900274E1CE968EE610C180E
:1050C0006878EC60022851D1D5F82090D5F810808E
:1050D00009EB060B58466F6202F0F8FB0023C4F29E
:1050E0005903002202F098FA0B4644F200010246EE
:1050F000C4F28F01002002F08FFA02F05BFA8246C0
:105100006860304602F0C6FD0646584602F0C2FD11
:105110000146304602F0A8FCA860204602F0D2FD0D
:10512000314602F0A1FCA862404602F0CBFD0446E5
:10513000484602F0AFFD0146204602F095FC0021F2
:10514000E862C4F248315046C5E90777C5E90377FC
:1051500002F061FC28B950464FF07E5102F062FC2B
:1051600020B90027C5E90177C5E90A7701200DE0DC
:1051700081084A2908D8296A2A690131104429621C
:1051800028610027022001E001270020696A41F21E
:1051900089334A1C99426A6222BF0021C5E9011184
:1051A000C5E90A11002F08BF687001B0BDE8F08F93
:1051B0002DE9F0439BB040F27005C2F2000528785B
:1051C000012840F0A08001AE06F1120052214AF2FF
:1051D0000107FBF7B5F840F2031005F1040840F2AF
:1051E0000009ADF8040098E81101C4F27A492D696C
:1051F000494602F0E3FD02F02DFDCDF80600204601
:10520000494602F0DBFD02F025FDCDF80A004FF61D
:10521000FF726FF00100CDF80E80CDF8125000BF84
:1052200031188B78C9785A4087EA5203D50708BFEE
:10523000530887EA5302DD0708BF5A0887EA52037A
:10524000D50708BF530887EA5302DD0708BF5A088D
:1052500087EA5203D50708BF530887EA5302DD07E0
:1052600008BF5A0887EA5203D50708BF530887EAE0
:105270005302DD0708BF5A08514087EA5102CB07A5
:1052800008BF4A0887EA5201D30708BF510887EAD6
:105290005102CB0708BF4A0887EA5201D30708BF6B
:1052A000510887EA5102CB0708BF4A0887EA520132
:1052B000D30708BF510887EA5103CA0708BF4B0844
:1052C00087EA5302D90700F1020008BF5A081028E4
:1052D000A6D140F60004C4F20104ADF81620204621
:1052E000102101221A96FDF71FF941F67020C2F233
:1052F00000001AA91422FF23FFF7C2F8204610214C
:105300000022FDF711F91BB0BDE8F083B0B541F6FE
:10531000B82CC2F2000C9CF849518DB19CF8955202
:1053200085B19CF8E1537DB19CF82D5575B19CF881
:105330007956002D1CBF4FF0FF30B0BD042406E0AD
:10534000002404E0012402E0022400E003244FF4DE
:10535000A67304FB03C56343022A4CF8030069608B
:1053600085F849210CD0012A15D14FF4A67104FB10
:1053700001C14FF480720831FEF7A4FF102005E050
:1053800005F108010122FFF74DF82020296809687E
:10539000CA681043C8602046B0BD000041F6540002
:1053A000C2F20000FCF750BD41F6282046F6192154
:1053B000C2F20000C0F600010122FFF7A7BF000003
:1053C00010B540F27000C2F200004FF47A714161F2
:1053D000FFF7EAFF42F2341046F67551C2F20000C0
:1053E000C0F60001C0F8701101F088FA41F62404FB
:1053F000C2F200042046FCF741F940F2B401C2F2C7
:10540000000120464FF4FA62FCF790FC41F6981038
:10541000C2F20000FDF79AFE41F6E014C2F2000469
:105420002046FEF757F920460C21FEF7CDF941F64C
:10543000702044F64D31C2F20000C0F60001012296
:10544000BDE81040FFF762BF94B0FDF787F8002475
:105450000120CDE90F44CDE90D440A900E904FF4A0
:10546000E0104FF48031022513900AA80494CDE98E
:105470000244CDE90B14CDE91151FDF775FB28B1BC
:10548000EFF3108072B600BFFEE700BF0F20CDE93A
:1054900005054FF48060CDE9080405A802210794B2
:1054A000FDF736FA20B1EFF3108072B6FEE700BFC9
:1054B000022001904FF40040039001A8FDF7A6F9E7
:1054C00020B1EFF3108072B6FEE700BFFFF71AFAC3
:1054D000FFF7EEF9FFF7F8FAFFF792F9FFF712FB83
:1054E000FFF756FAFFF790FAFFF7B6F9FFF768FFF4
:1054F000FFF706F9FCE7000040F27002C2F200027A
:10550000C2E90E017047000010B5044690F86A0128
:1055100000F00302012A17D0022A18BF10BDA1F122
:10552000410003281CD8DFE800F00317233100BF37
:105530002046002101F034F994F86A0120F00300BC
:1055400084F86A0110BD00BF00F0FC005B2908BFB1
:10555000023084F86A0110BD2046012101F020F9D3
:1055600094F86A0120F0030084F86A0110BD00BFBE
:10557000208FE18E8842F3D2D4F8701121B12044FB
:1055800090F904008847208F013009E0208F00281F
:10559000E6D0D4F8701111B108208847208F013867
:1055A000208794F86A0120F0030084F86A0110BD96
:1055B000B0B5C18E002900F087800446008F884274
:1055C00016D1481EE086208780B220440021017158
:1055D000D4F87011002977D008208847D4F87011CA
:1055E00020208847D4F870110820BDE8B040084753
:1055F000002869D081420CD900230022184420449D
:1056000001790132C170E18E208F13B20D1A9D42D3
:10561000F4DC01390138208788B2E186204400217A
:105620000171D4F87011D9B108208847B4F9381045
:10563000E08ED4F8702181422CDA8DB22AB915E0BF
:10564000013529B282B2914222DAD4F87021002ABF
:10565000F6D0601890F904009047E08EF0E700BFA4
:10566000B4F93810E08E814218DA8DB2691C09B2A3
:10567000884213DDA91C09B288420FDDE91C09B27A
:1056800088420BDD043529B28842EFDC06E000BF1A
:10569000D4F8702112B120209047E08E218F401A5B
:1056A000013005B2012DB8BFB0BDD4F8701159B1A9
:1056B00009B10820884728B2012805DDD4F8701107
:1056C000013D0029F5D1F6E7B0BD000010B542F26A
:1056D000AC20C2F2000004681CB194F86A114907BA
:1056E00018D444681CB194F86A11490712D484682C
:1056F0001CB194F86A1149070CD4C4681CB194F821
:105700006A11490706D4046944B394F86A01400752
:1057100058BF10BDD4F8701101B31B208847D4F8CE
:1057200070115B208847D4F8701132208847D4F874
:1057300070114A208847D4F870111B208847D4F88C
:1057400070115B208847D4F8701131208847D4F855
:1057500070114820BDE81040084700BF10BD000090
:105760002DE9F0410446D0F87001002856D0D4F855
:105770005C8108010D4658F800100878C0B14F1E32
:10578000002100BFD4F8702140B20E469047B8788F
:10579000711C002807F10107F4D1D4F8700100282A
:1057A0003CD0C6F1150007B2012FB8BF042704E0B2
:1057B000162702E0013F380406D0D4F87011002902
:1057C000F8D020208847F5E7D4F8701131B32D20A8
:1057D0008847D4F870112D208847D4F8701100291B
:1057E00008BFBDE8F08108EB05108268107860B151
:1057F000551E00BFD4F8701140B28847A878013513
:105800000028F7D1D4F8701141B10D208847D4F8A1
:1058100070110A20BDE8F041084700BFBDE8F081E3
:105820002DE9F04F83B08246C08EB8B3411C0AF117
:105830000405AAF8361000212954BAF8584132223A
:1058400020B200FB02A6AAF85A1106F12A00294646
:10585000FAF7C0FD002854D09AF8043006F15C0035
:10586000002B3DD000220021835441F0010292B26E
:10587000AB5C4BB3835441F0020292B2AB5C1BB3FE
:10588000835441F0030292B2AB5CEBB10431835418
:105890008AB2AB5C002BE7D117E000BFDAF87001E9
:1058A000002800F01781DAF800100878002800F0CE
:1058B00011814C1EDAF8701140B28847A07801348B
:1058C0000028F7D106E100BF012100238354BAF874
:1058D000584108041CBF0134AAF8584102E000BF37
:1058E00000210170BAF8560121B2013080B20528BA
:1058F00028BF05200529AAF85601A4BF0020AAF850
:105900005801BAF83600002800F0D08001234FF08B
:10591000000C002100224FF0000E00270EE000BF17
:10592000092C18BF202C2BD105F801C0BAF836007D
:105930000123013291B284B2A14225D26C5C3E06B1
:10594000EED0002CF0D0222C03D1FEB2B6FA86F6AF
:105950007709012B294403D05C2CEAD10BE000BF6E
:105960005FFA8EF30AEB8303D9630C780EF1010E14
:1059700000235C2CDDD14978002918BF0132D8E71B
:105980002C2CD1D0DDE700BF5FFA8EF80020B8F1F3
:10599000000FCAF8360000F08C80DAF8701129B1D7
:1059A0000D208847DAF870110A208847564656F8C5
:1059B0003C7F48F28F01D6F82051C0F600013846EE
:1059C000FAF708FD002800F08980BAF860416CB150
:1059D000043500BF55F8041C3846FAF7FBFC0028D4
:1059E00000F0A080013C05F11005F3D1DAF8701148
:1059F00000296FD043208847DAF870116F2088475C
:105A0000DAF870116D208847DAF870116D20884738
:105A1000DAF8701161208847DAF870116E20884733
:105A2000DAF8701164208847DAF87011202088476E
:105A3000DAF870116E208847DAF870116F20884705
:105A4000DAF8701174208847DAF87011202088473E
:105A5000DAF8701166208847DAF870116F208847ED
:105A6000DAF8701175208847DAF870116E208847CF
:105A7000DAF8701164208847DAF870110D20884731
:105A8000DAF870110A208847DAF8700110B3DAF8F2
:105A900000100878F0B14C1EDAF8701140B2884757
:105AA000A07801340028F7D114E000BF0020CAF824
:105AB0003600DAF8700168B1DAF80010087848B1F9
:105AC0004C1E00BFDAF8701140B28847A07801344C
:105AD0000028F7D103B0BDE8F08F00BF9AF86A0143
